{
  "contractName": "MedicalHistory",
  "abi": [
    {
      "inputs": [
        {
          "internalType": "string",
          "name": "id",
          "type": "string"
        },
        {
          "internalType": "string",
          "name": "name",
          "type": "string"
        }
      ],
      "name": "createNewUser",
      "outputs": [],
      "stateMutability": "nonpayable",
      "type": "function"
    },
    {
      "inputs": [
        {
          "internalType": "string",
          "name": "id",
          "type": "string"
        },
        {
          "components": [
            {
              "internalType": "string",
              "name": "id",
              "type": "string"
            },
            {
              "internalType": "string",
              "name": "userId",
              "type": "string"
            },
            {
              "internalType": "string",
              "name": "hospitalName",
              "type": "string"
            },
            {
              "internalType": "string",
              "name": "doctorName",
              "type": "string"
            },
            {
              "internalType": "string",
              "name": "diagnosis",
              "type": "string"
            },
            {
              "internalType": "string",
              "name": "prescription",
              "type": "string"
            },
            {
              "internalType": "string[]",
              "name": "files",
              "type": "string[]"
            }
          ],
          "internalType": "struct MedicalHistory.MedicalRecord",
          "name": "record",
          "type": "tuple"
        }
      ],
      "name": "addMedicalRecord",
      "outputs": [],
      "stateMutability": "nonpayable",
      "type": "function"
    },
    {
      "inputs": [
        {
          "internalType": "string",
          "name": "id",
          "type": "string"
        }
      ],
      "name": "getMedicalRecord",
      "outputs": [
        {
          "components": [
            {
              "internalType": "string",
              "name": "id",
              "type": "string"
            },
            {
              "internalType": "string",
              "name": "userId",
              "type": "string"
            },
            {
              "internalType": "string",
              "name": "hospitalName",
              "type": "string"
            },
            {
              "internalType": "string",
              "name": "doctorName",
              "type": "string"
            },
            {
              "internalType": "string",
              "name": "diagnosis",
              "type": "string"
            },
            {
              "internalType": "string",
              "name": "prescription",
              "type": "string"
            },
            {
              "internalType": "string[]",
              "name": "files",
              "type": "string[]"
            }
          ],
          "internalType": "struct MedicalHistory.MedicalRecord[]",
          "name": "",
          "type": "tuple[]"
        }
      ],
      "stateMutability": "view",
      "type": "function",
      "constant": true
    },
    {
      "inputs": [
        {
          "internalType": "string",
          "name": "id",
          "type": "string"
        }
      ],
      "name": "getUserById",
      "outputs": [
        {
          "components": [
            {
              "internalType": "string",
              "name": "id",
              "type": "string"
            },
            {
              "internalType": "string",
              "name": "name",
              "type": "string"
            }
          ],
          "internalType": "struct MedicalHistory.User",
          "name": "",
          "type": "tuple"
        }
      ],
      "stateMutability": "view",
      "type": "function",
      "constant": true
    }
  ],
  "bytecode": "0x608060405234801561001057600080fd5b50611270806100206000396000f3fe608060405234801561001057600080fd5b506004361061004c5760003560e01c8063379f8fc2146100515780634dfa3f1814610081578063a07a34471461009d578063cc368d53146100b9575b600080fd5b61006b60048036038101906100669190610cd3565b6100e9565b60405161007891906110ab565b60405180910390f35b61009b60048036038101906100969190610d14565b610265565b005b6100b760048036038101906100b29190610d80565b6102e5565b005b6100d360048036038101906100ce9190610cd3565b6103fe565b6040516100e09190611089565b60405180910390f35b6100f1610930565b6001826040516101019190611072565b9081526020016040518091039020604051806040016040529081600082018054600181600116156101000203166002900480601f0160208091040260200160405190810160405280929190818152602001828054600181600116156101000203166002900480156101b35780601f10610188576101008083540402835291602001916101b3565b820191906000526020600020905b81548152906001019060200180831161019657829003601f168201915b50505050508152602001600182018054600181600116156101000203166002900480601f0160208091040260200160405190810160405280929190818152602001828054600181600116156101000203166002900480156102555780601f1061022a57610100808354040283529160200191610255565b820191906000526020600020905b81548152906001019060200180831161023857829003601f168201915b5050505050815250509050919050565b61026d610930565b6040518060400160405280848152602001838152509050806001846040516102959190611072565b908152602001604051809103902060008201518160000190805190602001906102bf92919061094a565b5060208201518160010190805190602001906102dc92919061094a565b50905050505050565b6000826040516102f59190611072565b9081526020016040518091039020819080600181540180825580915050600190039060005260206000209060070201600090919091909150600082015181600001908051906020019061034992919061094a565b50602082015181600101908051906020019061036692919061094a565b50604082015181600201908051906020019061038392919061094a565b5060608201518160030190805190602001906103a092919061094a565b5060808201518160040190805190602001906103bd92919061094a565b5060a08201518160050190805190602001906103da92919061094a565b5060c08201518160060190805190602001906103f79291906109ca565b5050505050565b60606000826040516104109190611072565b9081526020016040518091039020805480602002602001604051908101604052809291908181526020016000905b8282101561092557838290600052602060002090600702016040518060e0016040529081600082018054600181600116156101000203166002900480601f0160208091040260200160405190810160405280929190818152602001828054600181600116156101000203166002900480156104fa5780601f106104cf576101008083540402835291602001916104fa565b820191906000526020600020905b8154815290600101906020018083116104dd57829003601f168201915b50505050508152602001600182018054600181600116156101000203166002900480601f01602080910402602001604051908101604052809291908181526020018280546001816001161561010002031660029004801561059c5780601f106105715761010080835404028352916020019161059c565b820191906000526020600020905b81548152906001019060200180831161057f57829003601f168201915b50505050508152602001600282018054600181600116156101000203166002900480601f01602080910402602001604051908101604052809291908181526020018280546001816001161561010002031660029004801561063e5780601f106106135761010080835404028352916020019161063e565b820191906000526020600020905b81548152906001019060200180831161062157829003601f168201915b50505050508152602001600382018054600181600116156101000203166002900480601f0160208091040260200160405190810160405280929190818152602001828054600181600116156101000203166002900480156106e05780601f106106b5576101008083540402835291602001916106e0565b820191906000526020600020905b8154815290600101906020018083116106c357829003601f168201915b50505050508152602001600482018054600181600116156101000203166002900480601f0160208091040260200160405190810160405280929190818152602001828054600181600116156101000203166002900480156107825780601f1061075757610100808354040283529160200191610782565b820191906000526020600020905b81548152906001019060200180831161076557829003601f168201915b50505050508152602001600582018054600181600116156101000203166002900480601f0160208091040260200160405190810160405280929190818152602001828054600181600116156101000203166002900480156108245780601f106107f957610100808354040283529160200191610824565b820191906000526020600020905b81548152906001019060200180831161080757829003601f168201915b5050505050815260200160068201805480602002602001604051908101604052809291908181526020016000905b8282101561090e578382906000526020600020018054600181600116156101000203166002900480601f0160208091040260200160405190810160405280929190818152602001828054600181600116156101000203166002900480156108fa5780601f106108cf576101008083540402835291602001916108fa565b820191906000526020600020905b8154815290600101906020018083116108dd57829003601f168201915b505050505081526020019060010190610852565b50505050815250508152602001906001019061043e565b505050509050919050565b604051806040016040528060608152602001606081525090565b828054600181600116156101000203166002900490600052602060002090601f016020900481019282601f1061098b57805160ff19168380011785556109b9565b828001600101855582156109b9579182015b828111156109b857825182559160200191906001019061099d565b5b5090506109c69190610a2a565b5090565b828054828255906000526020600020908101928215610a19579160200282015b82811115610a18578251829080519060200190610a0892919061094a565b50916020019190600101906109ea565b5b509050610a269190610a47565b5090565b5b80821115610a43576000816000905550600101610a2b565b5090565b5b80821115610a675760008181610a5e9190610a6b565b50600101610a48565b5090565b50805460018160011615610100020316600290046000825580601f10610a915750610ab0565b601f016020900490600052602060002090810190610aaf9190610a2a565b5b50565b600082601f830112610ac457600080fd5b8135610ad7610ad2826110fa565b6110cd565b9150818183526020840193506020810190508360005b83811015610b1d5781358601610b038882610b27565b845260208401935060208301925050600181019050610aed565b5050505092915050565b600082601f830112610b3857600080fd5b8135610b4b610b4682611122565b6110cd565b91508082526020830160208301858383011115610b6757600080fd5b610b728382846111e7565b50505092915050565b600060e08284031215610b8d57600080fd5b610b9760e06110cd565b9050600082013567ffffffffffffffff811115610bb357600080fd5b610bbf84828501610b27565b600083015250602082013567ffffffffffffffff811115610bdf57600080fd5b610beb84828501610b27565b602083015250604082013567ffffffffffffffff811115610c0b57600080fd5b610c1784828501610b27565b604083015250606082013567ffffffffffffffff811115610c3757600080fd5b610c4384828501610b27565b606083015250608082013567ffffffffffffffff811115610c6357600080fd5b610c6f84828501610b27565b60808301525060a082013567ffffffffffffffff811115610c8f57600080fd5b610c9b84828501610b27565b60a08301525060c082013567ffffffffffffffff811115610cbb57600080fd5b610cc784828501610ab3565b60c08301525092915050565b600060208284031215610ce557600080fd5b600082013567ffffffffffffffff811115610cff57600080fd5b610d0b84828501610b27565b91505092915050565b60008060408385031215610d2757600080fd5b600083013567ffffffffffffffff811115610d4157600080fd5b610d4d85828601610b27565b925050602083013567ffffffffffffffff811115610d6a57600080fd5b610d7685828601610b27565b9150509250929050565b60008060408385031215610d9357600080fd5b600083013567ffffffffffffffff811115610dad57600080fd5b610db985828601610b27565b925050602083013567ffffffffffffffff811115610dd657600080fd5b610de285828601610b7b565b9150509250929050565b6000610df88383610efe565b905092915050565b6000610e0c8383610f68565b905092915050565b6000610e1f8261116e565b610e2981856111a9565b935083602082028501610e3b8561114e565b8060005b85811015610e775784840389528151610e588582610dec565b9450610e638361118f565b925060208a01995050600181019050610e3f565b50829750879550505050505092915050565b6000610e9482611179565b610e9e81856111ba565b935083602082028501610eb08561115e565b8060005b85811015610eec5784840389528151610ecd8582610e00565b9450610ed88361119c565b925060208a01995050600181019050610eb4565b50829750879550505050505092915050565b6000610f0982611184565b610f1381856111cb565b9350610f238185602086016111f6565b610f2c81611229565b840191505092915050565b6000610f4282611184565b610f4c81856111dc565b9350610f5c8185602086016111f6565b80840191505092915050565b600060e0830160008301518482036000860152610f858282610efe565b91505060208301518482036020860152610f9f8282610efe565b91505060408301518482036040860152610fb98282610efe565b91505060608301518482036060860152610fd38282610efe565b91505060808301518482036080860152610fed8282610efe565b91505060a083015184820360a08601526110078282610efe565b91505060c083015184820360c08601526110218282610e14565b9150508091505092915050565b6000604083016000830151848203600086015261104b8282610efe565b915050602083015184820360208601526110658282610efe565b9150508091505092915050565b600061107e8284610f37565b915081905092915050565b600060208201905081810360008301526110a38184610e89565b905092915050565b600060208201905081810360008301526110c5818461102e565b905092915050565b6000604051905081810181811067ffffffffffffffff821117156110f057600080fd5b8060405250919050565b600067ffffffffffffffff82111561111157600080fd5b602082029050602081019050919050565b600067ffffffffffffffff82111561113957600080fd5b601f19601f8301169050602081019050919050565b6000819050602082019050919050565b6000819050602082019050919050565b600081519050919050565b600081519050919050565b600081519050919050565b6000602082019050919050565b6000602082019050919050565b600082825260208201905092915050565b600082825260208201905092915050565b600082825260208201905092915050565b600081905092915050565b82818337600083830152505050565b60005b838110156112145780820151818401526020810190506111f9565b83811115611223576000848401525b50505050565b6000601f19601f830116905091905056fea2646970667358221220603c30974c3a7ba408b4ac3a4f43b027c7bb45c62e61b248dd43a02a7ecd05a264736f6c63430007000033",
  "immutableReferences": {},
  "source": "//SPDX-License-Identifier: MIT\r\n\r\npragma solidity >=0.7.0 <0.8.0;\r\npragma experimental ABIEncoderV2;\r\n\r\ncontract MedicalHistory {\r\n    mapping(string => MedicalRecord[]) medicalRecords;\r\n    mapping(string => User) users;\r\n    \r\n\r\n    struct MedicalRecord {\r\n        string id;\r\n        string userId;\r\n        string hospitalName;\r\n        string doctorName;\r\n        string diagnosis;\r\n        string prescription;\r\n        string[] files;\r\n       \r\n    }\r\n    struct User {\r\n        string id;\r\n        string name;\r\n    }\r\n\r\n\r\n    function createNewUser(\r\n        string memory id,\r\n        string memory name\r\n        \r\n    ) public {\r\n        \r\n         User memory user = User(id,name);\r\n        users[id]=user;\r\n        \r\n    }\r\n    function addMedicalRecord(\r\n        string memory id,\r\n        MedicalRecord memory record\r\n    ) public {\r\n        \r\n        medicalRecords[id].push(record);\r\n        \r\n    }\r\n    function getMedicalRecord(\r\n        string memory id\r\n    )  public\r\n        view\r\n        returns (MedicalRecord[] memory) {\r\n        \r\n        return medicalRecords[id];\r\n        \r\n    }\r\n    \r\n    \r\n    function getUserById(\r\n        string memory id\r\n    ) public\r\n        view\r\n        returns (User memory){\r\n        \r\n      return  users[id];\r\n        \r\n    }\r\n\r\n}",
  "sourcePath": "C:/Users/pradh/Documents/Projects/health-bit/contracts/MedicalHistory.sol",
  "compiler": {
    "name": "solc",
    "version": "0.7.0+commit.9e61f92b.Emscripten.clang"
  },
  "schemaVersion": "3.3.4",
  "updatedAt": "2021-02-20T14:36:35.775Z",
  "networkType": "ethereum",
  "devdoc": {
    "kind": "dev",
    "methods": {},
    "version": 1
  },
  "userdoc": {
    "kind": "user",
    "methods": {},
    "version": 1
  }
}