{
  "contractName": "MedicalHistory",
  "abi": [
    {
      "inputs": [
        {
          "internalType": "string",
          "name": "id",
          "type": "string"
        },
        {
          "components": [
            {
              "internalType": "string",
              "name": "id",
              "type": "string"
            },
            {
              "internalType": "string",
              "name": "userId",
              "type": "string"
            },
            {
              "internalType": "string",
              "name": "hospitalName",
              "type": "string"
            },
            {
              "internalType": "string",
              "name": "doctorName",
              "type": "string"
            },
            {
              "internalType": "string",
              "name": "diagnosis",
              "type": "string"
            },
            {
              "internalType": "string",
              "name": "prescription",
              "type": "string"
            },
            {
              "internalType": "string[]",
              "name": "files",
              "type": "string[]"
            }
          ],
          "internalType": "struct MedicalHistory.MedicalRecord",
          "name": "record",
          "type": "tuple"
        }
      ],
      "name": "addMedicalRecord",
      "outputs": [],
      "stateMutability": "nonpayable",
      "type": "function"
    },
    {
      "inputs": [
        {
          "internalType": "string",
          "name": "id",
          "type": "string"
        }
      ],
      "name": "getMedicalRecord",
      "outputs": [
        {
          "components": [
            {
              "internalType": "string",
              "name": "id",
              "type": "string"
            },
            {
              "internalType": "string",
              "name": "userId",
              "type": "string"
            },
            {
              "internalType": "string",
              "name": "hospitalName",
              "type": "string"
            },
            {
              "internalType": "string",
              "name": "doctorName",
              "type": "string"
            },
            {
              "internalType": "string",
              "name": "diagnosis",
              "type": "string"
            },
            {
              "internalType": "string",
              "name": "prescription",
              "type": "string"
            },
            {
              "internalType": "string[]",
              "name": "files",
              "type": "string[]"
            }
          ],
          "internalType": "struct MedicalHistory.MedicalRecord[]",
          "name": "",
          "type": "tuple[]"
        }
      ],
      "stateMutability": "view",
      "type": "function",
      "constant": true
    }
  ],
  "bytecode": "0x608060405234801561001057600080fd5b50610f26806100206000396000f3fe608060405234801561001057600080fd5b50600436106100365760003560e01c8063a07a34471461003b578063cc368d5314610057575b600080fd5b61005560048036038101906100509190610a9c565b610087565b005b610071600480360381019061006c9190610a5b565b6101a0565b60405161007e9190610d61565b60405180910390f35b6000826040516100979190610d4a565b908152602001604051809103902081908060018154018082558091505060019003906000526020600020906007020160009091909190915060008201518160000190805190602001906100eb9291906106d2565b5060208201518160010190805190602001906101089291906106d2565b5060408201518160020190805190602001906101259291906106d2565b5060608201518160030190805190602001906101429291906106d2565b50608082015181600401908051906020019061015f9291906106d2565b5060a082015181600501908051906020019061017c9291906106d2565b5060c0820151816006019080519060200190610199929190610752565b5050505050565b60606000826040516101b29190610d4a565b9081526020016040518091039020805480602002602001604051908101604052809291908181526020016000905b828210156106c757838290600052602060002090600702016040518060e0016040529081600082018054600181600116156101000203166002900480601f01602080910402602001604051908101604052809291908181526020018280546001816001161561010002031660029004801561029c5780601f106102715761010080835404028352916020019161029c565b820191906000526020600020905b81548152906001019060200180831161027f57829003601f168201915b50505050508152602001600182018054600181600116156101000203166002900480601f01602080910402602001604051908101604052809291908181526020018280546001816001161561010002031660029004801561033e5780601f106103135761010080835404028352916020019161033e565b820191906000526020600020905b81548152906001019060200180831161032157829003601f168201915b50505050508152602001600282018054600181600116156101000203166002900480601f0160208091040260200160405190810160405280929190818152602001828054600181600116156101000203166002900480156103e05780601f106103b5576101008083540402835291602001916103e0565b820191906000526020600020905b8154815290600101906020018083116103c357829003601f168201915b50505050508152602001600382018054600181600116156101000203166002900480601f0160208091040260200160405190810160405280929190818152602001828054600181600116156101000203166002900480156104825780601f1061045757610100808354040283529160200191610482565b820191906000526020600020905b81548152906001019060200180831161046557829003601f168201915b50505050508152602001600482018054600181600116156101000203166002900480601f0160208091040260200160405190810160405280929190818152602001828054600181600116156101000203166002900480156105245780601f106104f957610100808354040283529160200191610524565b820191906000526020600020905b81548152906001019060200180831161050757829003601f168201915b50505050508152602001600582018054600181600116156101000203166002900480601f0160208091040260200160405190810160405280929190818152602001828054600181600116156101000203166002900480156105c65780601f1061059b576101008083540402835291602001916105c6565b820191906000526020600020905b8154815290600101906020018083116105a957829003601f168201915b5050505050815260200160068201805480602002602001604051908101604052809291908181526020016000905b828210156106b0578382906000526020600020018054600181600116156101000203166002900480601f01602080910402602001604051908101604052809291908181526020018280546001816001161561010002031660029004801561069c5780601f106106715761010080835404028352916020019161069c565b820191906000526020600020905b81548152906001019060200180831161067f57829003601f168201915b5050505050815260200190600101906105f4565b5050505081525050815260200190600101906101e0565b505050509050919050565b828054600181600116156101000203166002900490600052602060002090601f016020900481019282601f1061071357805160ff1916838001178555610741565b82800160010185558215610741579182015b82811115610740578251825591602001919060010190610725565b5b50905061074e91906107b2565b5090565b8280548282559060005260206000209081019282156107a1579160200282015b828111156107a05782518290805190602001906107909291906106d2565b5091602001919060010190610772565b5b5090506107ae91906107cf565b5090565b5b808211156107cb5760008160009055506001016107b3565b5090565b5b808211156107ef57600081816107e691906107f3565b506001016107d0565b5090565b50805460018160011615610100020316600290046000825580601f106108195750610838565b601f01602090049060005260206000209081019061083791906107b2565b5b50565b600082601f83011261084c57600080fd5b813561085f61085a82610db0565b610d83565b9150818183526020840193506020810190508360005b838110156108a5578135860161088b88826108af565b845260208401935060208301925050600181019050610875565b5050505092915050565b600082601f8301126108c057600080fd5b81356108d36108ce82610dd8565b610d83565b915080825260208301602083018583830111156108ef57600080fd5b6108fa838284610e9d565b50505092915050565b600060e0828403121561091557600080fd5b61091f60e0610d83565b9050600082013567ffffffffffffffff81111561093b57600080fd5b610947848285016108af565b600083015250602082013567ffffffffffffffff81111561096757600080fd5b610973848285016108af565b602083015250604082013567ffffffffffffffff81111561099357600080fd5b61099f848285016108af565b604083015250606082013567ffffffffffffffff8111156109bf57600080fd5b6109cb848285016108af565b606083015250608082013567ffffffffffffffff8111156109eb57600080fd5b6109f7848285016108af565b60808301525060a082013567ffffffffffffffff811115610a1757600080fd5b610a23848285016108af565b60a08301525060c082013567ffffffffffffffff811115610a4357600080fd5b610a4f8482850161083b565b60c08301525092915050565b600060208284031215610a6d57600080fd5b600082013567ffffffffffffffff811115610a8757600080fd5b610a93848285016108af565b91505092915050565b60008060408385031215610aaf57600080fd5b600083013567ffffffffffffffff811115610ac957600080fd5b610ad5858286016108af565b925050602083013567ffffffffffffffff811115610af257600080fd5b610afe85828601610903565b9150509250929050565b6000610b148383610c1a565b905092915050565b6000610b288383610c84565b905092915050565b6000610b3b82610e24565b610b458185610e5f565b935083602082028501610b5785610e04565b8060005b85811015610b935784840389528151610b748582610b08565b9450610b7f83610e45565b925060208a01995050600181019050610b5b565b50829750879550505050505092915050565b6000610bb082610e2f565b610bba8185610e70565b935083602082028501610bcc85610e14565b8060005b85811015610c085784840389528151610be98582610b1c565b9450610bf483610e52565b925060208a01995050600181019050610bd0565b50829750879550505050505092915050565b6000610c2582610e3a565b610c2f8185610e81565b9350610c3f818560208601610eac565b610c4881610edf565b840191505092915050565b6000610c5e82610e3a565b610c688185610e92565b9350610c78818560208601610eac565b80840191505092915050565b600060e0830160008301518482036000860152610ca18282610c1a565b91505060208301518482036020860152610cbb8282610c1a565b91505060408301518482036040860152610cd58282610c1a565b91505060608301518482036060860152610cef8282610c1a565b91505060808301518482036080860152610d098282610c1a565b91505060a083015184820360a0860152610d238282610c1a565b91505060c083015184820360c0860152610d3d8282610b30565b9150508091505092915050565b6000610d568284610c53565b915081905092915050565b60006020820190508181036000830152610d7b8184610ba5565b905092915050565b6000604051905081810181811067ffffffffffffffff82111715610da657600080fd5b8060405250919050565b600067ffffffffffffffff821115610dc757600080fd5b602082029050602081019050919050565b600067ffffffffffffffff821115610def57600080fd5b601f19601f8301169050602081019050919050565b6000819050602082019050919050565b6000819050602082019050919050565b600081519050919050565b600081519050919050565b600081519050919050565b6000602082019050919050565b6000602082019050919050565b600082825260208201905092915050565b600082825260208201905092915050565b600082825260208201905092915050565b600081905092915050565b82818337600083830152505050565b60005b83811015610eca578082015181840152602081019050610eaf565b83811115610ed9576000848401525b50505050565b6000601f19601f830116905091905056fea2646970667358221220745fbb7be9111b64fc4be3166fbeae43e284920d98f934b2f97566fd702d031e64736f6c63430007000033",
  "immutableReferences": {},
  "source": "//SPDX-License-Identifier: MIT\r\n\r\npragma solidity >=0.7.0 <0.8.0;\r\npragma experimental ABIEncoderV2;\r\n\r\ncontract MedicalHistory {\r\n    mapping(string => MedicalRecord[]) medicalRecords;\r\n\r\n    struct MedicalRecord {\r\n        string id;\r\n        string userId;\r\n        string hospitalName;\r\n        string doctorName;\r\n        string diagnosis;\r\n        string prescription;\r\n        string[] files;   \r\n    }\r\n\r\n    function addMedicalRecord(\r\n        string memory id,\r\n        MedicalRecord memory record\r\n    ) public {\r\n        \r\n        medicalRecords[id].push(record);\r\n        \r\n    }\r\n    function getMedicalRecord(\r\n        string memory id\r\n    )  public\r\n        view\r\n        returns (MedicalRecord[] memory) {\r\n        \r\n        return medicalRecords[id];\r\n        \r\n    }\r\n\r\n}",
  "sourcePath": "C:/Users/Symetryn/Desktop/health-bit/contracts/MedicalHistory.sol",
  "compiler": {
    "name": "solc",
    "version": "0.7.0+commit.9e61f92b.Emscripten.clang"
  },
  "schemaVersion": "3.3.4",
  "updatedAt": "2021-02-21T00:47:35.126Z",
  "networkType": "ethereum",
  "devdoc": {
    "kind": "dev",
    "methods": {},
    "version": 1
  },
  "userdoc": {
    "kind": "user",
    "methods": {},
    "version": 1
  }
}